S00C0000535057532E73726563CB
S11300000C9434000C9446000C9446000C94460066
S11300100C9446000C9446000C9446000C94460044
S11300200C9446000C9446000C9446000C94460034
S11300300C9446000C9446000C948C010C944600DD
S11300400C9446000C9446000C9446000C94460014
S11300500C9446000C9446000C9446000C94460004
S11300600C9446000C94460011241FBECFEFD8E038
S1130070DEBFCDBF21E0A0E0B1E001C01D92A231FE
S1130080B207E1F70E9439010C94E0020C940000DD
S11300908AB18F608AB908958BB181608BB9089554
S11300A08BB18E7F8BB908959BB121E030E002C003
S11300B0220F331F8A95E2F7292B2BB908959BB1A0
S11300C021E030E002C0220F331F8A95E2F7209529
S11300D029232BB9089517B887E880937A0080E420
S11300E080937C0008958770806480937C00EAE7A5
S11300F0F0E080818064808380917A0084FFFCCF6B
S1130100EAE7F0E0808180618083809178009091BB
S11301107900089584B18C7F84B985B1836085B9F1
S113012008950F931F93189920C00E94B101009164
S11301300401109105012091060130910701DC01B1
S1130140CB01801B910BA20BB30BC397A105B10587
S113015070F00E94B10160930401709305018093D3
S113016006019093070181E003C080E001C080E0B4
S11301701F910F9108950F931F93199920C00E9406
S1130180B10100910001109101012091020130910F
S11301900301DC01CB01801B910BA20BB30BC397B2
S11301A0A105B10570F00E94B10160930001709344
S11301B00101809302019093030181E003C080E078
S11301C001C080E01F910F91089580910C019091DE
S11301D00D01889780F06091080170910901809168
S11301E00A0190910B0120E030E040EF51E40E94BD
S11301F0F90118169CF40E944C0082E00E945400FD
S11302002FEF89E698E1215080409040E1F700C04B
S113021000000E94500082E00E945F002FEF80E700
S113022092E0215080409040E1F700C00000089522
S11302300E94BB00813099F40E944C0082E00E942D
S113024054002FEF89E698E1215080409040E1F777
S113025000C000000E94500082E00E945F002FEF67
S113026080E792E0215080409040E1F700C0000018
S113027008950E948A000E946B000E9448000E9418
S11302808201C12CD12C7601C0E00E949100882308
S113029019F081E08C1BC82F0E94B101DC01CB0155
S11302A08C199D09AE09BF098C329140A105B10595
S11302B008F180E00E947300BC0180E090E00E949D
S11302C0BC0123E23BED49EF5EE30E94FE01609333
S11302D008017093090180930A0190930B0181E056
S11302E00E94730090930D0180930C010E94B10150
S11302F06B017C01C11103C00E94E500C6CF0E94BE
S11303001801C3CF82E084BD93E095BD9CE797BDFF
S113031080936E00789408951F920F920FB60F92F7
S113032011248F939F93AF93BF9380910E0190916B
S11303300F01A0911001B09111010196A11DB11DF1
S113034080930E0190930F01A0931001B0931101BB
S1130350BF91AF919F918F910F900FBE0F901F90FF
S11303601895F89460910E0170910F01809110011D
S11303709091110178940895E89409C097FB3EF494
S113038090958095709561957F4F8F4F9F4F9923DE
S1130390A9F0F92F96E9BB279395F695879577955C
S11303A06795B795F111F8CFFAF4BB0F11F460FF1C
S11303B01BC06F5F7F4F8F4F9F4F16C0882311F074
S11303C096E911C0772321F09EE8872F762F05C088
S11303D0662371F096E8862F70E060E02AF09A9523
S11303E0660F771F881FDAF7880F9695879597F918
S11303F008950E946B0208F48FEF08950E94110281
S11304000C94A6020E94980238F00E949F0220F0E9
S1130410952311F00C948F020C94950211240C94E2
S1130420DA020E94B70270F3959FC1F3950F50E072
S1130430551F629FF001729FBB27F00DB11D639F92
S1130440AA27F00DB11DAA1F649F6627B00DA11D38
S1130450661F829F2227B00DA11D621F739FB00DDE
S1130460A11D621F839FA00D611D221F749F33274E
S1130470A00D611D231F849F600D211D822F762FE7
S11304806A2F11249F5750409AF0F1F088234AF0C4
S1130490EE0FFF1FBB1F661F771F881F9150504030
S11304A0A9F79E3F510580F00C948F020C94DA0258
S11304B05F3FE4F3983ED4F3869577956795B795B7
S11304C0F795E7959F5FC1F7FE2B880F911D9695D1
S11304D0879597F90895990F0008550FAA0BE0E83E
S11304E0FEEF16161706E807F907C0F012161306F2
S11304F0E407F50798F0621B730B840B950B39F432
S11305000A2661F0232B242B252B21F408950A2697
S113051009F4A140A6958FEF811D811D089597F9D7
S11305209F6780E870E060E008959FEF80EC089595
S113053000240A94161617061806090608950024BE
S11305400A9412161306140605060895092E039438
S1130550000C11F4882352F0BB0F40F4BF2B11F4AC
S113056060FF04C06F5F7F4F8F4F9F4F089557FD0B
S11305709058440F551F59F05F3F71F04795880F0D
S113058097FB991F61F09F3F79F0879508951216A4
S113059013061406551FF2CF4695F1DF08C0161650
S11305A017061806991FF1CF869571056105089401
S11305B00895E894BB2766277727CB0197F9089518
S10705C0F894FFCFD9
S9030000FC
