:100000000C9434000C9446000C9446000C9446006A
:100010000C9446000C9446000C9446000C94460048
:100020000C9446000C9446000C9446000C94460038
:100030000C9446000C9446000C9439010C94460034
:100040000C9446000C9446000C9446000C94460018
:100050000C9446000C9446000C9446000C94460008
:100060000C9446000C94460011241FBECFEFD8E03C
:10007000DEBFCDBF21E0A0E0B1E001C01D92A23102
:10008000B207E1F70E9469010C94D8020C940000B9
:100090008091040190910501889780F020E030E084
:1000A00040EF51E4609100017091010180910201E3
:1000B000909103010E94F10118169CF40E94A00087
:1000C00082E00E94A4002FEF89E698E12150804051
:1000D0009040E1F700C000000E94A20082E00E9470
:1000E000AE002FEF80E792E0215080409040E1F792
:1000F00000C0000008950E940701813099F40E9419
:10010000A00082E00E94A4002FEF89E698E1215030
:1001100080409040E1F700C000000E94A20082E011
:100120000E94AE002FEF80E792E021508040904087
:10013000E1F700C0000008958AB18F608AB9089580
:10014000589A0895589808959BB121E030E001C075
:10015000220F8A95EAF7292B2BB908959BB121E04C
:1001600030E001C0220F8A95EAF7209529232BB9A8
:10017000089517B887E880937A0080E480937C0024
:1001800008958770806480937C0080917A008064F9
:1001900080937A0080917A0084FFFCCF80917A006E
:1001A000806180937A008091780090917900089521
:1001B00084B18C7F84B985B1836085B908950F932C
:1001C0001F93189B02C080E01FC00E945E01009137
:1001D0000A0110910B0120910C0130910D01DC01FD
:1001E000CB01801B910BA20BB30BC397A105B105EB
:1001F00050F30E945E0160930A0170930B0180939B
:100200000C0190930D0181E01F910F9108950F93C0
:100210001F93199B02C080E01FC00E945E010091E5
:100220000601109107012091080130910901DC01BC
:10023000CB01801B910BA20BB30BC397A105B1059A
:1002400050F30E945E016093060170930701809352
:1002500008019093090181E01F910F91089582E0B8
:1002600084BD93E095BD9CE797BD80936E00789424
:1002700008951F920F920FB60F9211248F939F93A0
:10028000AF93BF9380910E0190910F01A091100147
:10029000B09111010196A11DB11D80930E019093A3
:1002A0000F01A0931001B0931101BF91AF919F91E5
:1002B0008F910F900FBE0F901F901895F89460913A
:1002C0000E0170910F0180911001909111017894AD
:1002D00008950E94D8000E94B9000E949C000E94CC
:1002E0002F01C12CD12C7601C0E0D1E00E94DF00AB
:1002F000882319F02D2F2C1BC22F0E945E01DC01D8
:10030000CB018C199D09AE09BF098C329140A10522
:10031000B10508F180E00E94C100BC0180E090E0DE
:100320000E94B40123E23BED49EF5EE30E94F60137
:100330006093000170930101809302019093030187
:1003400081E00E94C10090930501809304010E9406
:100350005E016B017C01C11103C00E944800C6CF41
:100360000E947B00C1E0C2CFE89409C097FB3EF435
:1003700090958095709561957F4F8F4F9F4F9923F2
:10038000A9F0F92F96E9BB279395F6958795779570
:100390006795B795F111F8CFFAF4BB0F11F460FF30
:1003A0001BC06F5F7F4F8F4F9F4F16C0882311F088
:1003B00096E911C0772321F09EE8872F762F05C09C
:1003C000662371F096E8862F70E060E02AF09A9537
:1003D000660F771F881FDAF7880F9695879597F92C
:1003E00008950E94630208F48FEF08950E940902A5
:1003F0000C949E020E94900238F00E94970220F016
:10040000952311F00C9487020C948D0211240C9406
:10041000D2020E94AF0270F3959FC1F3950F50E096
:10042000551F629FF001729FBB27F00DB11D639FA6
:10043000AA27F00DB11DAA1F649F6627B00DA11D4C
:10044000661F829F2227B00DA11D621F739FB00DF2
:10045000A11D621F839FA00D611D221F749F332762
:10046000A00D611D231F849F600D211D822F762FFB
:100470006A2F11249F5750409AF0F1F088234AF0D8
:10048000EE0FFF1FBB1F661F771F881F9150504044
:10049000A9F79E3F510580F00C9487020C94D2027C
:1004A0005F3FE4F3983ED4F3869577956795B795CB
:1004B000F795E7959F5FC1F7FE2B880F911D9695E5
:1004C000879597F90895990F0008550FAA0BE0E852
:1004D000FEEF16161706E807F907C0F01216130606
:1004E000E407F50798F0621B730B840B950B39F446
:1004F0000A2661F0232B242B252B21F408950A26AC
:1005000009F4A140A6958FEF811D811D089597F9EB
:100510009F6780E870E060E008959FEF80EC0895A9
:1005200000240A94161617061806090608950024D2
:100530000A9412161306140605060895092E03944C
:10054000000C11F4882352F0BB0F40F4BF2B11F4C0
:1005500060FF04C06F5F7F4F8F4F9F4F089557FD1F
:100560009058440F551F59F05F3F71F04795880F21
:1005700097FB991F61F09F3F79F0879508951216B8
:1005800013061406551FF2CF4695F1DF08C0161664
:1005900017061806991FF1CF869571056105089415
:1005A0000895E894BB2766277727CB0197F908952C
:0405B000F894FFCFED
:00000001FF
